{
  "contractName": "Authority",
  "abi": [
    {
      "constant": true,
      "inputs": [
        {
          "name": "",
          "type": "address"
        }
      ],
      "name": "permissions",
      "outputs": [
        {
          "name": "write",
          "type": "uint256"
        },
        {
          "name": "read",
          "type": "uint256"
        }
      ],
      "payable": false,
      "stateMutability": "view",
      "type": "function"
    },
    {
      "constant": true,
      "inputs": [],
      "name": "lastCompletedMmigration",
      "outputs": [
        {
          "name": "",
          "type": "uint256"
        }
      ],
      "payable": false,
      "stateMutability": "view",
      "type": "function"
    },
    {
      "constant": true,
      "inputs": [
        {
          "name": "",
          "type": "bytes32"
        }
      ],
      "name": "permissionList",
      "outputs": [
        {
          "name": "alg",
          "type": "bytes32"
        },
        {
          "name": "typ",
          "type": "bytes32"
        },
        {
          "name": "iss",
          "type": "bytes32"
        },
        {
          "name": "sub",
          "type": "uint256"
        },
        {
          "name": "audience",
          "type": "uint256"
        },
        {
          "name": "exp",
          "type": "uint256"
        },
        {
          "name": "nbf",
          "type": "uint256"
        },
        {
          "name": "iat",
          "type": "uint256"
        },
        {
          "name": "jti",
          "type": "uint256"
        }
      ],
      "payable": false,
      "stateMutability": "view",
      "type": "function"
    },
    {
      "constant": true,
      "inputs": [],
      "name": "owner",
      "outputs": [
        {
          "name": "",
          "type": "address"
        }
      ],
      "payable": false,
      "stateMutability": "view",
      "type": "function"
    },
    {
      "inputs": [],
      "payable": false,
      "stateMutability": "nonpayable",
      "type": "constructor"
    },
    {
      "anonymous": false,
      "inputs": [
        {
          "indexed": false,
          "name": "permissionId",
          "type": "bytes32"
        }
      ],
      "name": "PermissionRequestdeployed",
      "type": "event"
    },
    {
      "anonymous": false,
      "inputs": [
        {
          "indexed": false,
          "name": "permissionId",
          "type": "bytes32"
        }
      ],
      "name": "PermissionGranted",
      "type": "event"
    },
    {
      "constant": false,
      "inputs": [
        {
          "name": "_permissionId",
          "type": "bytes32"
        },
        {
          "name": "_alg",
          "type": "bytes32"
        },
        {
          "name": "_typ",
          "type": "bytes32"
        },
        {
          "name": "_iss",
          "type": "bytes32"
        },
        {
          "name": "_sub",
          "type": "uint256"
        },
        {
          "name": "_audience",
          "type": "uint256"
        },
        {
          "name": "_exp",
          "type": "uint256"
        },
        {
          "name": "_nbf",
          "type": "uint256"
        },
        {
          "name": "_iat",
          "type": "uint256"
        }
      ],
      "name": "addPermissionRequest",
      "outputs": [],
      "payable": false,
      "stateMutability": "nonpayable",
      "type": "function"
    },
    {
      "constant": true,
      "inputs": [
        {
          "name": "_permissionId",
          "type": "bytes32"
        }
      ],
      "name": "getRequestAlg",
      "outputs": [
        {
          "name": "",
          "type": "bytes32"
        }
      ],
      "payable": false,
      "stateMutability": "view",
      "type": "function"
    },
    {
      "constant": true,
      "inputs": [
        {
          "name": "_permissionId",
          "type": "bytes32"
        }
      ],
      "name": "getRequestTyp",
      "outputs": [
        {
          "name": "",
          "type": "bytes32"
        }
      ],
      "payable": false,
      "stateMutability": "view",
      "type": "function"
    },
    {
      "constant": true,
      "inputs": [
        {
          "name": "_permissionId",
          "type": "bytes32"
        }
      ],
      "name": "getRequestIss",
      "outputs": [
        {
          "name": "",
          "type": "bytes32"
        }
      ],
      "payable": false,
      "stateMutability": "view",
      "type": "function"
    },
    {
      "constant": true,
      "inputs": [
        {
          "name": "_permissionId",
          "type": "bytes32"
        }
      ],
      "name": "getRequestSub",
      "outputs": [
        {
          "name": "",
          "type": "uint256"
        }
      ],
      "payable": false,
      "stateMutability": "view",
      "type": "function"
    },
    {
      "constant": true,
      "inputs": [
        {
          "name": "_permissionId",
          "type": "bytes32"
        }
      ],
      "name": "getRequestAud",
      "outputs": [
        {
          "name": "",
          "type": "uint256"
        }
      ],
      "payable": false,
      "stateMutability": "view",
      "type": "function"
    },
    {
      "constant": true,
      "inputs": [
        {
          "name": "_permissionId",
          "type": "bytes32"
        }
      ],
      "name": "getRequestExp",
      "outputs": [
        {
          "name": "",
          "type": "uint256"
        }
      ],
      "payable": false,
      "stateMutability": "view",
      "type": "function"
    },
    {
      "constant": true,
      "inputs": [
        {
          "name": "_permissionId",
          "type": "bytes32"
        }
      ],
      "name": "getRequestNbf",
      "outputs": [
        {
          "name": "",
          "type": "uint256"
        }
      ],
      "payable": false,
      "stateMutability": "view",
      "type": "function"
    },
    {
      "constant": true,
      "inputs": [
        {
          "name": "_permissionId",
          "type": "bytes32"
        }
      ],
      "name": "getRequestIat",
      "outputs": [
        {
          "name": "",
          "type": "uint256"
        }
      ],
      "payable": false,
      "stateMutability": "view",
      "type": "function"
    },
    {
      "constant": true,
      "inputs": [
        {
          "name": "_permissionId",
          "type": "bytes32"
        }
      ],
      "name": "getRequestJti",
      "outputs": [
        {
          "name": "",
          "type": "uint256"
        }
      ],
      "payable": false,
      "stateMutability": "view",
      "type": "function"
    }
  ],
  "bytecode": "0x6060604052341561000f57600080fd5b336000806101000a81548173ffffffffffffffffffffffffffffffffffffffff021916908373ffffffffffffffffffffffffffffffffffffffff160217905550600060028190555061083b806100666000396000f3006060604052600436106100d0576000357c0100000000000000000000000000000000000000000000000000000000900463ffffffff16806301e88208146100d55780630d2519bb14610129578063364737a714610152578063423038b81461018d5780634704619a146101c85780634c215ac71461020b5780637c9400b4146102465780638da5cb5b146102d15780638db23030146103265780638f1c63f314610361578063afcf7639146103a4578063e469e09e146103e7578063e630d8e714610422578063f7e898501461049d575b600080fd5b34156100e057600080fd5b61010c600480803573ffffffffffffffffffffffffffffffffffffffff169060200190919050506104d8565b604051808381526020018281526020019250505060405180910390f35b341561013457600080fd5b61013c6104fc565b6040518082815260200191505060405180910390f35b341561015d57600080fd5b610177600480803560001916906020019091905050610502565b6040518082815260200191505060405180910390f35b341561019857600080fd5b6101b260048080356000191690602001909190505061052a565b6040518082815260200191505060405180910390f35b34156101d357600080fd5b6101ed600480803560001916906020019091905050610552565b60405180826000191660001916815260200191505060405180910390f35b341561021657600080fd5b61023060048080356000191690602001909190505061057a565b6040518082815260200191505060405180910390f35b341561025157600080fd5b61026b6004808035600019169060200190919050506105a2565b604051808a6000191660001916815260200189600019166000191681526020018860001916600019168152602001878152602001868152602001858152602001848152602001838152602001828152602001995050505050505050505060405180910390f35b34156102dc57600080fd5b6102e46105f0565b604051808273ffffffffffffffffffffffffffffffffffffffff1673ffffffffffffffffffffffffffffffffffffffff16815260200191505060405180910390f35b341561033157600080fd5b61034b600480803560001916906020019091905050610615565b6040518082815260200191505060405180910390f35b341561036c57600080fd5b61038660048080356000191690602001909190505061063d565b60405180826000191660001916815260200191505060405180910390f35b34156103af57600080fd5b6103c9600480803560001916906020019091905050610665565b60405180826000191660001916815260200191505060405180910390f35b34156103f257600080fd5b61040c60048080356000191690602001909190505061068d565b6040518082815260200191505060405180910390f35b341561042d57600080fd5b61049b6004808035600019169060200190919080356000191690602001909190803560001916906020019091908035600019169060200190919080359060200190919080359060200190919080359060200190919080359060200190919080359060200190919050506106b5565b005b34156104a857600080fd5b6104c26004808035600019169060200190919050506107e7565b6040518082815260200191505060405180910390f35b60036020528060005260406000206000915090508060000154908060010154905082565b60015481565b6000600460008360001916600019168152602001908152602001600020600801549050919050565b6000600460008360001916600019168152602001908152602001600020600501549050919050565b6000600460008360001916600019168152602001908152602001600020600201549050919050565b6000600460008360001916600019168152602001908152602001600020600301549050919050565b60046020528060005260406000206000915090508060000154908060010154908060020154908060030154908060040154908060050154908060060154908060070154908060080154905089565b6000809054906101000a900473ffffffffffffffffffffffffffffffffffffffff1681565b6000600460008360001916600019168152602001908152602001600020600401549050919050565b6000600460008360001916600019168152602001908152602001600020600101549050919050565b6000600460008360001916600019168152602001908152602001600020600001549050919050565b6000600460008360001916600019168152602001908152602001600020600701549050919050565b610120604051908101604052808960001916815260200188600019168152602001876000191681526020018681526020018581526020018481526020018381526020018281526020016002600081548092919060010191905055815250600460008b60001916600019168152602001908152602001600020600082015181600001906000191690556020820151816001019060001916905560408201518160020190600019169055606082015181600301556080820151816004015560a0820151816005015560c0820151816006015560e0820151816007015561010082015181600801559050507fbd030bec30a19b9430b5fd951e59b8364c6f4ddafee6ddcc24c8ab091f8b02758960405180826000191660001916815260200191505060405180910390a1505050505050505050565b60006004600083600019166000191681526020019081526020016000206006015490509190505600a165627a7a723058206e138e8d411eb456cacc168fa166a8b20b6c59546fa7a851882f5b3e27fafd220029",
  "source": "pragma solidity ^0.4.17;\n\n\ncontract Authority {\n    struct Levelobj {\n        uint write;\n        uint read;\n    }\n\n    struct Permissionrequest {\n        bytes32 alg;\n        bytes32 typ;\n        bytes32 iss;\n        uint sub;\n        uint audience;\n        uint exp;\n        uint nbf;\n        uint iat;\n        uint jti;\n    }\n\n    address public owner;\n    uint public lastCompletedMmigration;\n    uint private jtiCounter;\n    mapping (address => Levelobj) public permissions;\n    mapping (bytes32 => Permissionrequest) public permissionList;\n\n    event PermissionRequestdeployed (bytes32 permissionId);\n    event PermissionGranted (bytes32 permissionId);\n\n    modifier restricted() {\n        if (msg.sender == owner) _;\n    }\n\n    function Authority() public {\n        owner = msg.sender;\n        jtiCounter = 0;\n    }\n\n    function addPermissionRequest (\n        //sender ID\n        bytes32 _permissionId,\n        bytes32 _alg,\n        bytes32 _typ,\n        bytes32 _iss,\n        uint _sub,\n        uint _audience,\n        uint _exp,\n        uint _nbf,\n        uint _iat) public {\n        permissionList[_permissionId] = Permissionrequest(\n        _alg, _typ, _iss, _sub, _audience, _exp, _nbf, _iat, jtiCounter++);\n        PermissionRequestdeployed(_permissionId);\n    }\n\n    /*\n    * DOESNT WORK BECAUSE \"Stack is too deep\"\n    function getRequest(bytes32 _permissionId) public view returns(\n        bytes32 alg, bytes32 typ, bytes32 iss, uint sub, uint audience, uint exp, uint nbf, uint iat, uint jti) {\n        Permissionrequest storage request = permissionList[_permissionId];\n        return (request.alg, request.typ, request.iss, request.sub,\n        request.audience, request.exp, request.nbf, request.iat, request.jti);\n    }\n    */\n    function getRequestAlg(bytes32 _permissionId) public view returns(bytes32) {\n        return permissionList[_permissionId].alg;\n    }\n\n    function getRequestTyp(bytes32 _permissionId) public view returns(bytes32) {\n        return permissionList[_permissionId].typ;\n    }\n\n    function getRequestIss(bytes32 _permissionId) public view returns(bytes32) {\n        return permissionList[_permissionId].iss;\n    }\n\n    function getRequestSub(bytes32 _permissionId) public view returns(uint) {\n        return permissionList[_permissionId].sub;\n    }\n\n    function getRequestAud(bytes32 _permissionId) public view returns(uint) {\n        return permissionList[_permissionId].audience;\n    }\n\n    function getRequestExp(bytes32 _permissionId) public view returns(uint) {\n        return permissionList[_permissionId].exp;\n    }\n\n    function getRequestNbf(bytes32 _permissionId) public view returns(uint) {\n        return permissionList[_permissionId].nbf;\n    }\n\n    function getRequestIat(bytes32 _permissionId) public view returns(uint) {\n        return permissionList[_permissionId].iat;\n    }\n\n    function getRequestJti(bytes32 _permissionId) public view returns(uint) {\n        return permissionList[_permissionId].jti;\n    }\n\n\n}\n",
  "sourcePath": "/home/lebx/Documents/Uni/Masterarbeit/Prototyp_eth/contracts/Authority.sol",
  "compiler": {
    "name": "solc",
    "version": "0.4.19+commit.c4cbbb05.Emscripten.clang"
  },
  "schemaVersion": "1.0.1",
  "updatedAt": "2018-03-14T11:26:15.368Z"
}